###Create raw transaction:

`.\bitcoin-cli.exe -datadir="./data" createrawtransaction "[]" '{\"data\":\"7a6c61746948726f7363\"}'`

####Response:
```02000000000100000000000000000d006a0a7a6c61746948726f736300000000```

###Fund raw transaction:
`./bitcoin-cli -datadir="./data" fundrawtransaction 02000000000100000000000000000d006a0a7a6c61746948726f736300000000`

####Response:
```json
{
  "hex": "020000000180dcd9af855a5528f91de0c8a9ec1fb7b59a0e6d44a92d7e0040f9a6c24ef5230000000000feffffff0200000000000000000d006a0a7a6c61746948726f73634cf1052a010000001976a91499b12e414187e50165e08250d770dad86e8a905888ac00000000",
  "changepos": 1,
  "fee": 0.00000180
}
```

###Sign raw transaction:
`./bitcoin-cli -datadir="./data" signrawtransaction 020000000180dcd9af855a5528f91de0c8a9ec1fb7b59a0e6d44a92d7e0040f9a6c24ef5230000000000feffffff0200000000000000000d006a0a7a6c61746948726f73634cf1052a010000001976a91499b12e414187e50165e08250d770dad86e8a905888ac00000000
`
####Response:
```json
{
  "hex": "020000000180dcd9af855a5528f91de0c8a9ec1fb7b59a0e6d44a92d7e0040f9a6c24ef5230000000049483045022100ce33ccd1760444ec279e542d9510d172105dff2df5330c8f53d516f9a87e75ba022033758f528970b43fe748c11b840aa82a79b81640afe46d3b083dab959d5b74ce41feffffff0200000000000000000d006a0a7a6c61746948726f73634cf1052a010000001976a91499b12e414187e50165e08250d770dad86e8a905888ac00000000",
  "complete": true
}
```

###Send raw transaction:
`./bitcoin-cli -datadir="./data" sendrawtransaction 020000000180dcd9af855a5528f91de0c8a9ec1fb7b59a0e6d44a92d7e0040f9a6c24ef5230000000049483045022100ce33ccd1760444ec279e542d9510d172105dff2df5330c8f53d516f9a87e75ba022033758f528970b43fe748c11b840aa82a79b81640afe46d3b083dab959d5b74ce41feffffff0200000000000000000d006a0a7a6c61746948726f73634cf1052a010000001976a91499b12e414187e50165e08250d770dad86e8a905888ac00000000
`
####Response:
`215c64087101c41caf2a4061248dfec00e0a06952c3ebc516df31ddaedc4a41f`


###Decode raw transaction:
`./bitcoin-cli -datadir="./data" decoderawtransaction 020000000180dcd9af855a5528f91de0c8a9ec1fb7b59a0e6d44a92d7e0040f9a6c24ef5230000000049483045022100ce33ccd1760444ec279e542d9510d172105dff2df5330c8f53d516f9a87e75ba022033758f528970b43fe748c11b840aa82a79b81640afe46d3b083dab959d5b74ce41feffffff0200000000000000000d006a0a7a6c61746948726f73634cf1052a010000001976a91499b12e414187e50165e08250d770dad86e8a905888ac00000000
`
####Response:

```json
{
  "txid": "215c64087101c41caf2a4061248dfec00e0a06952c3ebc516df31ddaedc4a41f",
  "hash": "215c64087101c41caf2a4061248dfec00e0a06952c3ebc516df31ddaedc4a41f",
  "version": 2,
  "size": 180,
  "locktime": 0,
  "vin": [
    {
      "txid": "23f54ec2a6f940007e2da9446d0e9ab5b71feca9c8e01df928555a85afd9dc80",
      "vout": 0,
      "scriptSig": {
        "asm": "3045022100ce33ccd1760444ec279e542d9510d172105dff2df5330c8f53d516f9a87e75ba022033758f528970b43fe748c11b840aa82a79b81640afe46d3b083dab959d5b74ce[ALL|FORKID]",
        "hex": "483045022100ce33ccd1760444ec279e542d9510d172105dff2df5330c8f53d516f9a87e75ba022033758f528970b43fe748c11b840aa82a79b81640afe46d3b083dab959d5b74ce41"
      },
      "sequence": 4294967294
    }
  ],
  "vout": [
    {
      "value": 0.00,
      "n": 0,
      "scriptPubKey": {
        "asm": "0 OP_RETURN 7a6c61746948726f7363",
        "hex": "006a0a7a6c61746948726f7363",
        "type": "nulldata"
      }
    },
    {
      "value": 49.9999982,
      "n": 1,
      "scriptPubKey": {
        "asm": "OP_DUP OP_HASH160 99b12e414187e50165e08250d770dad86e8a9058 OP_EQUALVERIFY OP_CHECKSIG",
        "hex": "76a91499b12e414187e50165e08250d770dad86e8a905888ac",
        "reqSigs": 1,
        "type": "pubkeyhash",
        "addresses": [
          "muXbw8iFJ5pyohE6Z4w8eUGH9z8NtQZX9y"
        ]
      }
    }
  ],
  "hex": "020000000180dcd9af855a5528f91de0c8a9ec1fb7b59a0e6d44a92d7e0040f9a6c24ef5230000000049483045022100ce33ccd1760444ec279e542d9510d172105dff2df5330c8f53d516f9a87e75ba022033758f528970b43fe748c11b840aa82a79b81640afe46d3b083dab959d5b74ce41feffffff0200000000000000000d006a0a7a6c61746948726f73634cf1052a010000001976a91499b12e414187e50165e08250d770dad86e8a905888ac00000000"
}
```